:1000000000308A002D28000022308400831300086D
:10001000031918280130F800F701F70B0D28F80B29
:100020000C284A30F700F70B13281628800B0A28F3
:1000300000341230A302031C2C28233084008313C5
:10004000FC3080050310800C800C000803192C285C
:100050002A280000800B29280034840183131F30D4
:10006000830583161F149F141F159F1107309C00D2
:10007000FF308312A1008316091283129001003011
:10008000F800920000308316920083121F1083162E
:100090001F149F141F159F11831221152108831609
:1000A000870083129701A114210883168700831209
:1000B0009D01003083168600860183128601831617
:1000C00086013230831286007830A200042032305C
:1000D000A00020083C3C031C7E2883168601831266
:1000E000200886000130A20004200230A200F73070
:1000F000A3001920A20B7728A00A69283D30A00090
:100100002008463C031C8E28831686018312200893
:1001100086000230A2000420A00A80284730A000F8
:100120002008503C031C9E28831686018312200859
:1001300086000330A2000420A00A90285130A000BD
:1001400020085A3C031CB528831686018312200818
:1001500086000430A20004200430A200AC30A300CA
:100160001920A20BAE28A00AA0285A30A00020080F
:100170004F3C0318C5288316860183122008860089
:100180000430A2000420A003B7284F30A0002008AC
:10019000453C0318DC28831686018312200886005C
:1001A0000230A20004200230A200F730A300192080
:1001B000A20BD528A003C7284530A00020083B3C4F
:1001C0000318F32883168601831220088600013065
:1001D000A20004200430A200AC30A3001920A20B1E
:1001E000EC28A003DE283B30A0002008313C031897
:1001F0000A29831686018312200886000130A20096
:1002000004200230A200F730A3001920A20B03291A
:10021000A003F52883168601323083128600A200DF
:1002200004203230A00020083C3C031C2129831606
:1002300086018312200886000130A2000420A00A53
:1002400013293C30A0002008463C031C38298316A3
:1002500086018312200886000130A20004200230AB
:10026000A200F730A3001920A20B3129A00A2329EC
:100270004630A00020083B3C03184F298316860116
:100280008312200886000130A20004200230A20060
:10029000F730A3001920A20B4829A0033A293C30CB
:1002A000A0002008313C03185F29831686018312C1
:1002B000200886000130A2000420A00351298316E3
:1002C0008601323083128600FA30A20004203230D8
:1002D000A00020083C3C031C782983168601831269
:1002E000200886008530F700F70B7429A00A6929D9
:1002F0003D30A0002008463C031C8A298316860155
:10030000831220088600C730F700F70B852988295B
:10031000A00A7A294730A00020084B3C031C9D29E5
:10032000831686018312200886000130A200042073
:10033000C830A3001920A00A8C294C30A000200846
:10034000503C031CB42983168601831220088600C2
:100350000330A20004200230A200F730A3001920CD
:10036000A20BAD29A00A9F295030A00020084B3CC9
:100370000318CB29831686018312200886000230D9
:10038000A20004200230A200F730A3001920A20B23
:10039000C429A003B6294B30A0002008453C03180F
:1003A000DB29831686018312200886000130A20013
:1003B0000420A003CD294530A00020083B3C0318B1
:1003C000ED2983168601831220088600C730F700C6
:1003D000F70BE829EB29A003DD293B30A00020081A
:1003E000313C0318FE2983168601831220088600FB
:1003F0008530F700F70BFA29A003EF298316860151
:100400003230831286007830A20004203230A000FF
:100410002008133C0318182A83168601831220082B
:1004200086004230F700F70B132A0000A003082AC9
:100430001430A0002008323C031C2A2A83168601AF
:100440008312200886004230F700F70B252A0000AF
:10045000A00A1A2A3230A0002008FA3C031C3C2AC9
:10046000831686018312200886004230F700F70BBE
:10047000372A0000A00A2C2AFA30A0002008003CED
:1004800003184E2A83168601831220088600423004
:10049000F700F70B492A0000A0033E2A0130A00014
:1004A0002008323C031C602A831686018312200830
:1004B00086004230F700F70B5B2A0000A00A502AA2
:1004C0005F286300FF3FFF3FFF3FFF3FFF3FFF3FCE
:1004D000FF3FFF3FFF3FFF3FFF3FFF3FFF3FFF3F2C
:1004E000FF3FFF3FFF3FFF3FFF3FFF3FFF3FFF3F1C
:1004F000FF3FFF3FFF3FFF3FFF3FFF3FFF3FFF3F0C
:02400E00393F38
:00000001FF
